:100000000C945D000C9485000C9485000C94850084
:100010000C9485000C9485000C9485000C9485004C
:100020000C9485000C9485000C9485000C9485003C
:100030000C9485000C9485000C9485000C9485002C
:100040000C9486030C9485000C9484050C94C705CD
:100050000C9485000C9485000C9485000C9485000C
:100060000C9485000C94850000000007000201003C
:100070000003040600000000000000000102040864
:100080001020408001020408102001020408102002
:10009000040404040404040402020202020203032E
:1000A0000303030300000000250028002B000000CC
:1000B0000000240027002A00830611241FBECFEF72
:1000C000D8E0DEBFCDBF13E0A0E0B1E0EEE8FEE097
:1000D00002C005900D92A83EB107D9F715E0A8EE31
:1000E000B3E001C01D92A632B107E1F710E0CAEB00
:1000F000D0E004C02297FE010E944107C83BD1070F
:10010000C9F70E94D9060C940E070C9400008823AE
:1001100079F041E050E022E030E090E048175907E4
:100120002CF4220F331F4F5F5F4FF8CFC9010895A2
:1001300081E090E00895CF92DF92EF92FF920F93CB
:100140001F93CF93DF9380E090E020E030E0BC018C
:1001500060517C4FAC01405D5B4FFB01E20FF31F30
:10016000DA01A20FB31FAC91A083285F3F4F203468
:10017000310599F701968830910539F7C8EED3E03B
:1001800000EF13E0D12CE12CF12CC12C8D2D0E941D
:100190008700F801EE0DFF1D40819C01429FC001C8
:1001A000439F900D11248C0D911D38E0E30EF11C3E
:1001B000D39428E0D21611F0C82EE8CF89930F5FB0
:1001C0001F4F33E0C03FD307E9F6DF91CF911F9176
:1001D0000F91FF90EF90DF90CF900895FF920F93D3
:1001E0001F93CF93DF93F82EC7E0D0E001E010E03B
:1001F00060E080910F030E94B60498010C2E01C0AC
:10020000220F0A94EAF72F2111F061E001C060E0AB
:10021000809111030E94B60461E080910F030E9457
:10022000B604219728F7DF91CF911F910F91FF908E
:100230000895CF93DF93D82FC62F60E080911003ED
:100240000E94B6048D2F0E94EE008C2F0E94EE00BB
:1002500060E0809110030E94B60461E08091100379
:10026000DF91CF910C94B6040F931F93CF93DF933C
:1002700040910D03E8EEF3E080E4489FA0011124D3
:1002800080E090E0455F5E4F1192BA01680F791FE0
:1002900020E030E08C01005D1B4FD801A20FB31F9E
:1002A000EB01C20FD31FC881CC93285F3F4F20348E
:1002B000310599F701968830910531F7DF91CF919B
:1002C0001F910F9108952F923F924F925F926F92DC
:1002D0007F928F929F92AF92BF92CF92DF92EF92D6
:1002E000FF920F931F93CF93DF9300D000D01F9204
:1002F000CDB7DEB76091E80381E00E9419016091FB
:10030000E90382E00E9419016091EA0383E00E9400
:1003100019016091EB0384E00E9419016091EC03E4
:1003200085E00E9419016091ED0386E00E941901A9
:100330006091EE0387E00E9419016091EF0388E06D
:100340000E9419018091ED036FE10E941107E82FCF
:10035000F0E0EE5EFC4F648970E068547109660F4E
:10036000771F660F771F8AE00E94270320EF33E094
:1003700080E090E0F901E80FF91F108201968830C3
:100380009105C1F7285F3F4F44E02033340781F7E0
:1003900050910E03598310E3C12E14E0D12E00EFCB
:1003A000E02E03E0F02E1D821C8220E030E06C8005
:1003B0007D8091E0691A71082C803D80A2E02A0EB0
:1003C000311CA3011B821A82490181E0881A91081D
:1003D000590192E0A90EB11C4215530509F459C008
:1003E000B4014F3FAFEF5A0721F4B7E05B2E412C29
:1003F00027C0542E452E24C0B981BB2359F14F3F4D
:10040000EFEF5E0709F148305105F4F080E090E02D
:100410006F3FFFEF7F07D9F068307105F4F4FB01FF
:100420008C01A3E0000F111FAA95E1F70E0F1F1F0B
:10043000005D1B4FD8011C91111112C06F5F7F4FDF
:100440006A157B05C9F622C0852D942DE1CFE7E022
:10045000F0E0E6CFFB01CA01E3CFE0E0F0E0E0CF5F
:10046000AC81BD818A179B0719F4E217F30731F3BA
:10047000089720F7EF3FBFEFFB0701F33897F1F242
:10048000EA81FB813196FB83EA83D8CF4F5F5F4FD0
:10049000A3CFF601E20FF31F808181110BC04A81C7
:1004A0005B8143305105C9F4F701E20FF31F51E0BE
:1004B000508313C0813089F4F701E20FF31FAA8142
:1004C000BB81119749F04A815B814250510942300A
:1004D000510510F4808301C010822F5F3F4F2830F8
:1004E000310509F06ECFEC81FD813196FD83EC83FF
:1004F000F8E0EF0EF11C48E0C40ED11C8C819D8108
:10050000089709F052CF80E090E020E030E0BC0195
:10051000605D7B4FAC0140515C4FFB01E20FF31F6C
:10052000DA01A20FB31FAC91A0832F5F3F4F283099
:10053000310599F708968034910539F70F900F909F
:100540000F900F900F90DF91CF911F910F91FF901F
:10055000EF90DF90CF90BF90AF909F908F907F9063
:100560006F905F904F903F902F900C949B0040E8CD
:1005700055E260E070E08CE794E00E9402060E9481
:1005800034010E949B0061E0809111030E947D0470
:1005900061E080910F030E947D0461E0809110036F
:1005A0000E947D0461E08AE00E947D0461E08BE0AE
:1005B0000E947D0461E08DE00E947D0467E08091EF
:1005C00008010E94190160E080910A010E9419014E
:1005D00061E0809107010E94190160E080910601AD
:1005E0000E94190181E090E090937204809371045D
:1005F0008091710490917204893091054CF460E00F
:100600000E94190180917104909172040196ECCFBF
:1006100061E0809109010C94190168EC70E080E0C0
:1006200090E00E94F3030E94630180910C038130EB
:1006300069F4809170048F5F8093700490910B0334
:10064000891720F0109270040C94340108951F93C0
:10065000CF93DF93182FEB0161E00E947D04209778
:1006600011F460E004C0CF3FD10539F461E0812F7F
:10067000DF91CF911F910C94B604E12FF0E0E8597F
:10068000FF4FE491E330F9F048F4E130B9F0E230A3
:10069000A1F584B5806284BDC8BD34C0E630E9F000
:1006A000E73019F1E43049F5809180008062809351
:1006B0008000D0938B00C0938A0024C084B58068EA
:1006C00084BDC7BD1FC0809180008068809380007A
:1006D000D0938900C093880015C08091B0008068D5
:1006E0008093B000C093B3000DC08091B0008062D1
:1006F0008093B000C093B40005C0C038D1050CF0A1
:10070000B5CFAFCFDF91CF911F9108951F920F9278
:100710000FB60F9211242F933F938F939F93AF9314
:10072000BF938091740490917504A0917604B09168
:1007300077043091730423E0230F2D3720F40196C2
:10074000A11DB11D05C026E8230F0296A11DB11DF4
:10075000209373048093740490937504A09376049B
:10076000B09377048091780490917904A0917A04F1
:10077000B0917B040196A11DB11D809378049093E4
:100780007904A0937A04B0937B04BF91AF919F91B9
:100790008F913F912F910F900FBE0F901F90189542
:1007A0003FB7F8948091780490917904A0917A04ED
:1007B000B0917B0426B5A89B05C02F3F19F0019688
:1007C000A11DB11D3FBF6627782F892F9A2F620F79
:1007D000711D811D911D42E0660F771F881F991FB3
:1007E0004A95D1F70895CF92DF92EF92FF92CF937F
:1007F000DF936B017C010E94D003EB01C114D10493
:10080000E104F10479F00E94D0036C1B7D0B683E7B
:100810007340A0F381E0C81AD108E108F108C8517B
:10082000DC4FECCFDF91CF91FF90EF90DF90CF9036
:100830000895789484B5826084BD84B5816084BD58
:1008400085B5826085BD85B5816085BDEEE6F0E049
:10085000808181608083E1E8F0E0108280818260A5
:100860008083808181608083E0E8F0E08081816026
:100870008083E1EBF0E0808184608083E0EBF0E056
:10088000808181608083EAE7F0E0808184608083FA
:1008900080818260808380818160808380818068A4
:1008A00080831092C1000895833081F028F4813054
:1008B00099F08230A1F008958630A9F08730B9F020
:1008C0008430D1F4809180008F7D03C080918000BE
:1008D0008F7780938000089584B58F7702C084B5A8
:1008E0008F7D84BD08958091B0008F7703C0809183
:1008F000B0008F7D8093B0000895CF93DF9390E098
:10090000FC01E458FF4F2491FC01E057FF4F849114
:10091000882349F190E0880F991FFC01E255FF4FB1
:10092000A591B4918C559F4FFC01C591D4919FB76F
:10093000611108C0F8948C91209582238C93888152
:1009400082230AC0623051F4F8948C91322F309592
:1009500083238C938881822B888304C0F8948C91A4
:10096000822B8C939FBFDF91CF9108950F931F939C
:10097000CF93DF931F92CDB7DEB7282F30E0F90178
:10098000E859FF4F8491F901E458FF4F1491F901A0
:10099000E057FF4F04910023C9F0882321F06983B9
:1009A0000E9454046981E02FF0E0EE0FFF1FEC5528
:1009B000FF4FA591B4919FB7F8948C91611103C03A
:1009C0001095812301C0812B8C939FBF0F90DF91E5
:1009D000CF911F910F910895FC0124853585F90170
:1009E000E05CFF4F80819181F901EE5BFF4F208138
:1009F0003181821B930B8F7399270895FC018485A5
:100A00009585FC01E05CFF4F40815181FC01EE5B6C
:100A1000FF4F208131814217530741F00190F0814F
:100A2000E02DE80FF91F808190E008958FEF9FEF90
:100A30000895FC0184859585FC01E05CFF4F4081B1
:100A40005181FC01EE5BFF4F20813181421753073A
:100A500079F0A081B181A80FB91F8C9120813181DB
:100A60002F5F3F4F2F7333273183208390E008950A
:100A70008FEF9FEF0895FC0181A1882329F0A489BD
:100A8000B5898C9186FFFBCF11A20895CF93DF9398
:100A9000FC0126853785D901A05CBF4F8D919C91C3
:100AA000119701968F739927E901CE5BDF4F48813B
:100AB000598184179507D9F30D90BC91A02DA20FF1
:100AC000B31F6C93A685B785A05CBF4F11969C930E
:100AD0008E93A689B7892C9181E090E0078C02C0A3
:100AE000880F991F0A94E2F7282B2C9381E081A3A9
:100AF0000488F589E02D80818064808381E090E026
:100B0000DF91CF91089508951F920F920FB60F9223
:100B100011242F933F934F938F939F93EF93FF93C2
:100B20008091C00082FD1CC04091C60080912205CA
:100B30009091230501968F73992720912405309178
:100B400025058217930771F0E0912205F0912305A6
:100B5000EE51FB4F4083909323058093220502C002
:100B60008091C600FF91EF919F918F914F913F919E
:100B70002F910F900FBE0F901F9018958CE794E067
:100B80000E94EC04892B11F00C94830508951F92A8
:100B90000F920FB60F9211242F933F938F939F9331
:100BA000EF93FF932091DE043091DF048091E00405
:100BB0009091E1042817390731F48091C1008F7DAD
:100BC0008093C10014C0E091E004F091E104E2568A
:100BD000FB4F20818091E0049091E10401968F7396
:100BE00099279093E1048093E0042093C600FF913D
:100BF000EF919F918F913F912F910F900FBE0F908A
:100C00001F901895CF92DF92EF92FF92CF93DF93D0
:100C1000EC016A017B01411581EE58076105710500
:100C2000F9F0EC89FD8981E090E008A002C0880F0E
:100C3000991F0A94E2F7808360E079E08DE390E009
:100C4000A70196010E941D07215031094109510950
:100C50005695479537952795211580E1380798F0E7
:100C6000EC89FD89108260E874E88EE190E0A701CC
:100C700096010E941D0721503109410951095695DD
:100C8000479537952795E889F9893083EA89FB8963
:100C9000208319A2EE89FF89408181E090E09C01C8
:100CA0000C8C02C0220F331F0A94E2F7422B4083C0
:100CB000EE89FF8940819C010D8C02C0220F331FF9
:100CC0000A94E2F7422B4083EE89FF8940819C0120
:100CD0000E8C02C0220F331F0A94E2F7422B40838E
:100CE000EE89FF8920810F8C02C0880F991F0A941A
:100CF000E2F7809582238083DF91CF91FF90EF9080
:100D0000DF90CF90089510927F0410927E0488EEB9
:100D100093E0A0E0B0E08093800490938104A093DE
:100D20008204B09383048CED93E090937D048093D0
:100D30007C0482EE94E090938904809388048EE989
:100D400094E090938B0480938A0485EC90E09093D8
:100D50008D0480938C0484EC90E090938F048093B6
:100D60008E0480EC90E0909391048093900481EC49
:100D700090E0909393048093920482EC90E090939F
:100D800095048093940486EC90E09093970480936C
:100D9000960484E08093980483E08093990487E02C
:100DA00080939A0485E080939B0481E080939C0467
:100DB00008950E9419040E94B702CEEBD5E00E946C
:100DC0000D032097E1F30E94BE05F9CFCF92DF9289
:100DD000EF92FF920F931F93CF93DF936C017A01F1
:100DE000EB01E60EF71E00E010E0CE15DF0561F026
:100DF0006991D601ED91FC910190F081E02DC60141
:100E00000995080F191FF1CFC801DF91CF911F91EC
:100E10000F91FF90EF90DF90CF900895F8940C948D
:100E20004507991B79E004C0991F961708F0961B97
:100E3000881F7A95C9F780950895A1E21A2EAA1BFA
:100E4000BB1BFD010DC0AA1FBB1FEE1FFF1FA2177A
:100E5000B307E407F50720F0A21BB30BE40BF50B77
:100E6000661F771F881F991F1A9469F76095709500
:100E7000809590959B01AC01BD01CF010895EE0FC7
:0E0E8000FF1F0590F491E02D0994F894FFCF28
:100E8E000000260520000F0C0B0A090000000101CE
:100E9E000000000000010000010000000100000041
:100EAE000001000100000000000001010000000030
:100EBE000000010001000000000100000001000020
:100ECE000100000000000101000000000000000011
:100EDE000000000000000000000000000000000004
:100EEE0000000000000001010100000000010101EE
:100EFE0000000000000000000000000000000000E4
:100F0E0000000000000000000000000000000000D3
:100F1E0000000000000000000000000000000000C3
:100F2E0000000000000000010000000000000101B0
:100F3E0001000000000000010000000000000000A1
:100F4E000000000000000000000000000000000093
:100F5E000000000000000000000000000000000083
:100F6E000000000000000001000000000001010070
:100F7E000000000000000001010000000000010060
:100F8E000000000000000000000000000000000053
:100F9E00000000000001010100000000000100013E
:100FAE000000000000010001000000000000000031
:100FBE00000000000001000100000000000100011F
:100FCE00000000000001010100000000010000000F
:100FDE0000000000000100000000000101010000FF
:100FEE0000000000000000000000000000000000F3
:100FFE0000000000000000000000000000000000E3
:10100E0000000000000000000000000000000000D2
:10101E0000000000000000000000000001010101BE
:10102E0000000001000000010000000000000001AF
:10103E0000000001000001000000000000000000A0
:10104E000000000000000000000000000000000191
:10105E00010000000000000100010000010000017D
:10106E00010000000001010000000000000001016D
:10107E00000000000001000101000000000000005F
:10108E00000000000000000000000008010701043D
:10109E0003024D69786F6C796469616E000000001F
:1010AE00000000000000484A4C4D4F5152540000C1
:1010BE000000084D616A6F725375733400000000B2
:1010CE0000000000000000484D484D4F484D5400B0
:1010DE00000000084D616A6F72537573370000008F
:1010EE000000000000000000484D4F52484D4F5484
:1010FE0000000000084D616A6F72370000000000AA
:10110E00000000000000000000484A4F52484A4FBD
:10111E005400000000084D696E6F72000000000060
:10112E0000000000000000000000484A4B4D4F50E8
:10113E00535400000000084D616A6F7200000000F9
:10114E000000000000000000000000484A4C4D4F17
:10115E005153540000000008000000004605E6064A
:08116E00EC041905FE043B0529
:00000001FF
