:100000000C945D000C9485000C9485000C94850084
:100010000C9485000C9485000C9485000C9485004C
:100020000C9485000C9485000C9485000C9485003C
:100030000C9485000C9485000C9485000C9485002C
:100040000C9462020C9485000C9400060C944306F8
:100050000C9485000C9485000C9485000C9485000C
:100060000C9485000C94850000000007000201003C
:100070000003040600000000000000000102040864
:100080001020408001020408102001020408102002
:10009000040404040404040402020202020203032E
:1000A0000303030300000000250028002B000000CC
:1000B0000000240027002A00060711241FBECFEFEE
:1000C000D8E0DEBFCDBF13E0A0E0B1E0ECEDFEE094
:1000D00002C005900D92AA31B107D9F724E0AAE138
:1000E000B3E001C01D92A935B207E1F710E0CDE5FC
:1000F000D0E004C02197FE010E946607CC35D107ED
:10010000C9F70E9459050C9441070C9400008823FC
:1001100079F041E050E022E030E090E048175907E4
:100120002CF4220F331F4F5F5F4FF8CFC9010895A2
:1001300081E090E00895CF92DF92EF92FF920F93CB
:100140001F93CF93DF9320E030E080E090E0AC019C
:10015000420F531FFA01EE5DFC4FDA01AE59BC4F5E
:100160004C91408308968034910589F72F5F3F4F6B
:100170002830310551F780910503E091060328E00E
:10018000E29FF0011124E80FF11DEE5DFC4F81E0CC
:1001900080830AE113E082E2E82E83E0F82E670113
:1001A000C0E0D0E08C2F0E948700F60140819C01C6
:1001B000429FC001439F900D11249C012D0F311DC2
:1001C000D22F88E0C80ED11CCF5FC83059F7F80194
:1001D00021938F01FFEFEF1AFF0A23E0023212078B
:1001E000F1F6DF91CF911F910F91FF90EF90DF908B
:1001F000CF900895E2E6F3E0208180E090E0DF0117
:10020000A80FB91F11963C9111973C930196873026
:100210009105A9F72783389683E0E23AF80761F75A
:100220000C949B00EF92FF921F93CF93DF93182FB4
:10023000C7E0D0E0EE24E394F12C60E08091070366
:100240000E94F60397010C2E01C0220F0A94EAF7D0
:10025000212311F061E001C060E0809109030E9458
:10026000F60361E0809107030E94F603219728F7C7
:10027000DF91CF911F91FF90EF900895CF93DF937F
:10028000D82FC62F60E0809108030E94F6038D2FBF
:100290000E9412018C2F0E94120160E080910803DD
:1002A0000E94F60361E080910803DF91CF910C94E6
:1002B000F603CF93DF9340E855E260E070E08FEA09
:1002C00093E00E947E06EAE1F3E080E090E0119284
:1002D00020E030E0A901480F591FDA01AE59BC4FA8
:1002E000EA01C050DF4F48814C93285F3F4F2034D4
:1002F000310581F701968830910549F70E949B00EE
:1003000061E0809109030E94BA0361E080910703D4
:100310000E94BA0361E0809108030E94BA0361E081
:100320008BE00E94BA0361E08DE00E94F60367E073
:10033000809102030E943E0160E0809104030E94CC
:100340003E0161E0809101030E943E0160E08091E6
:1003500000030E943E0181E090E09093A30380930C
:10036000A2038091A2039091A303893091054CF4DC
:1003700060E00E943E018091A2039091A303019648
:10038000ECCF61E080910303DF91CF910C943E01AB
:100390000F931F93CF93DF93C091A50302E613E061
:1003A000D0E08D2F0E948700F80140819C01429F80
:1003B000C001439F900D11249C012C0F311DC22FB1
:1003C000085F1F4FDF5FD83061F72093A503622FCE
:1003D00070E086E00E9432036091A40370E089E03F
:1003E0000E94320380910503E091060338E0E39F09
:1003F000F0011124E80FF11DEE59FC4F608170E00F
:100400008BE00E9432034AE050E06091A5038FEA3E
:1004100093E00E9442056091A50370E06F5F7F4FFB
:1004200085E0759567958A95E1F74AE050E08FEA97
:1004300093E00E941E0580910503E091060398E079
:10044000E99FF0011124E80FF11DEE59FC4F4AE03D
:1004500050E060818FEA93E00E94420560911A03A8
:1004600081E00E943E0160911B0382E00E943E01F8
:1004700060911C0383E00E943E0160911D0384E0B3
:100480000E943E0160911E0385E00E943E01609142
:100490001F0386E00E943E016091200387E00E94D6
:1004A0003E016091210388E00E943E010E94FA0013
:1004B00068EC70E080E090E0DF91CF911F910F91A8
:1004C0000C94D1021F920F920FB60F9211242F930A
:1004D0003F938F939F93AF93BF938091A703909186
:1004E000A803A091A903B091AA033091A60323E029
:1004F000230F2D3720F40196A11DB11D05C026E85C
:10050000230F0296A11DB11D2093A6038093A7037C
:100510009093A803A093A903B093AA038091AB037F
:100520009091AC03A091AD03B091AE030196A11DD3
:10053000B11D8093AB039093AC03A093AD03B09334
:10054000AE03BF91AF919F918F913F912F910F90EB
:100550000FBE0F901F9018953FB7F8948091AB0392
:100560009091AC03A091AD03B091AE0326B5A89BCA
:1005700005C02F3F19F00196A11DB11D3FBFBA2F35
:10058000A92F982F8827820F911DA11DB11DBC0195
:10059000CD0142E0660F771F881F991F4A95D1F75A
:1005A0000895CF92DF92EF92FF92CF93DF936B018A
:1005B0007C010E94AC02EB01C114D104E104F104FE
:1005C00079F00E94AC026C1B7D0B683E7340A0F377
:1005D00081E0C81AD108E108F108C851DC4FECCF1E
:1005E000DF91CF91FF90EF90DF90CF9008957894B6
:1005F00084B5826084BD84B5816084BD85B5826028
:1006000085BD85B5816085BDEEE6F0E080818160C5
:100610008083E1E8F0E010828081826080838081C5
:1006200081608083E0E8F0E0808181608083E1EB9D
:10063000F0E0808184608083E0EBF0E08081816085
:100640008083EAE7F0E0808184608083808182603B
:100650008083808181608083808180688083109224
:10066000C10008951F93CF93DF93182FEB0161E032
:100670000E94BA03209711F460E004C0CF3FD10577
:1006800039F461E0812FDF91CF911F910C94F60333
:10069000E12FF0E0E859FF4FE491E330F9F048F43E
:1006A000E130B9F0E230A1F584B5806284BDC8BD07
:1006B00034C0E630E9F0E73019F1E43049F58091D3
:1006C0008000806280938000D0938B00C0938A006A
:1006D00024C084B5806884BDC7BD1FC080918000E0
:1006E000806880938000D0938900C093880015C0F3
:1006F0008091B00080688093B000C093B3000DC0BB
:100700008091B00080628093B000C093B40005C0B7
:10071000C038D1050CF0B5CFAFCFDF91CF911F918D
:100720000895833081F028F4813099F08230A1F06F
:1007300008958630A9F08730B9F08430D1F48091E3
:1007400080008F7D03C0809180008F778093800030
:10075000089584B58F7702C084B58F7D84BD0895D8
:100760008091B0008F7703C08091B0008F7D80931F
:10077000B0000895CF93DF9390E0FC01E458FF4F61
:100780002491FC01E057FF4F8491882361F190E0B0
:10079000880F991FFC01E255FF4FC591D491FC01D0
:1007A000EC55FF4FA591B491611109C09FB7F89422
:1007B0008881209582238883EC912E230BC06230A0
:1007C00061F49FB7F8943881822F809583238883C2
:1007D000EC912E2B2C939FBF06C08FB7F894E88125
:1007E0002E2B28838FBFDF91CF9108951F93CF9336
:1007F000DF93282F30E0F901E859FF4F8491F90188
:10080000E458FF4FD491F901E057FF4FC491CC2336
:10081000C9F0162F81110E949103EC2FF0E0EE0F2A
:10082000FF1FEC55FF4FA591B4918FB7F8941111AC
:1008300005C09C91ED2FE095E92302C0EC91ED2BD2
:10084000EC938FBFDF91CF911F910895CF92DF92EC
:10085000EF92FF920F931F93CF93DF936C01EB0105
:100860007B01E40EF51E00E010E0CE15DF0561F01F
:100870006991D601ED91FC910190F081E02DC601C6
:100880000995080F191FF1CFC801DF91CF911F9172
:100890000F91FF90EF90DF90CF9008956115710553
:1008A00079F0FB0101900020E9F73197AF01461B79
:1008B000570BDC01ED91FC910280F381E02D09944E
:1008C00080E090E00895DC01ED91FC910190F081D1
:1008D000E02D09940F931F93CF93DF93EC016DE00C
:1008E0000E9463048C016AE0CE010E946304800FC1
:1008F000911FDF91CF911F910F9108958F929F9239
:10090000AF92BF92CF92DF92EF92FF920F931F931D
:10091000CF93DF93CDB7DEB7A1970FB6F894DEBFC4
:100920000FBECDBF6C01142FE52FCB01022F19A2F2
:10093000223008F40AE07E0121E2E20EF11C802E52
:10094000912CA12CB12C612F7E2FA50194010E9426
:100950004407029F1019112481E0E81AF1081A30A7
:1009600014F4105D01C0195CF7011083122FE32FFE
:10097000CA01232B242B252B31F7B701C6010E9476
:100980004E04A1960FB6F894DEBF0FBECDBFDF9127
:10099000CF911F910F91FF90EF90DF90CF90BF907C
:1009A000AF909F908F900895CF92DF92EF92FF9239
:1009B0000F931F93CF93DF93EC016A017B01211505
:1009C000310579F4E881F9810190F081E02D642FFF
:1009D000DF91CF911F910F91FF90EF90DF90CF901B
:1009E00009942A303105E9F477FF1AC06DE20E94BC
:1009F00063048C0144275527BA014C195D096E091F
:100A00007F092AE0CE010E947E04800F911FDF91B2
:100A1000CF911F910F91FF90EF90DF90CF900895AD
:100A20002AE0B701A601CE01DF91CF911F910F916E
:100A3000FF90EF90DF90CF900C947E040F931F9364
:100A4000CF93DF93EC019A01AB01770F660B770B25
:100A50000E94D4048C01CE010E946A04800F911F71
:100A6000DF91CF911F910F9108952115310541F428
:100A7000DC01ED91FC910190F081E02D642F09944F
:100A80000C947E040F931F93CF93DF93EC019A0194
:100A9000462F50E060E070E00E9435058C01CE01E9
:100AA0000E946A04800F911FDF91CF911F910F91D7
:100AB00008950E94F7020E945901CAE3D6E00E94FD
:100AC000C8012097E1F30E943A06F9CFFC01248582
:100AD0003585F901E05CFF4F80819181329620815C
:100AE0003181821B930B8F7399270895DC011C962B
:100AF000ED91FC911D97DF01A05CBF4F2D913C91C2
:100B0000119712968D919C9111972817390739F0FA
:100B10008D919C91E80FF91F808190E008958FEFEF
:100B20009FEF0895FC01A485B585FD01E05CFF4FB2
:100B3000208131813296808191812817390779F09F
:100B400080819181A80FB91F8C91208131812F5F05
:100B50003F4F2F7333273183208390E008958FEF29
:100B60009FEF0895FC0181A1882329F0A489B5890C
:100B70008C9186FFFBCF11A208950F931F93CF9303
:100B8000DF93FC01A685B7858D01005C1F4FE8014E
:100B90008881998101968F739927AD014E5B5F4FD4
:100BA000EA012881398182179307D1F3E80128816E
:100BB0003981A20FB31F6C93A685B785A05CBF4F88
:100BC00011969C938E93A689B7892C9181E090E031
:100BD000078C02C0880F991F0A94E2F7822B8C932E
:100BE00081E081A30488F589E02D80818064808381
:100BF00081E090E0DF91CF911F910F9108950895CA
:100C00001F920F920FB60F9211242F934F935F9361
:100C10008F939F93EF93FF938091C00082FD1CC040
:100C20002091C600809155049091560401968F73CF
:100C3000992740915704509158048417950771F0F3
:100C4000E0915504F0915604EB5EFB4F20839093A6
:100C500056048093550402C08091C600FF91EF9125
:100C60009F918F915F914F912F910F900FBE0F9099
:100C70001F9018958FEA93E00E946605892B11F06A
:100C80000C94FF0508951F920F920FB60F92112436
:100C90002F933F938F939F93EF93FF932091110492
:100CA000309112048091130490911404281739078D
:100CB00031F48091C1008F7D8093C10014C0E09118
:100CC0001304F0911404EF52FC4F2081809113041F
:100CD0009091140401968F73992790931404809334
:100CE00013042093C600FF91EF919F918F913F9144
:100CF0002F910F900FBE0F901F901895CF92DF92FB
:100D0000EF92FF920F931F93CF93DF93EC016A0151
:100D10007B014115514E6105710509F1EC89FD8991
:100D200081E090E008A002C0880F991F0A94E2F7C2
:100D3000808360E079E08DE390E0A70196010E9456
:100D4000440789019A010150110921093109369599
:100D5000279517950795980101151041A8F0EC8982
:100D6000FD89108260E874E88EE190E0A7019601A9
:100D70000E944407DA01C9010197A109B109B6959A
:100D8000A795979587959C01E889F9893083EA8929
:100D9000FB89208319A2EE89FF89408181E090E0E0
:100DA0009C010C8C02C0220F331F0A94E2F7242B03
:100DB0002083EE89FF8940819C010D8C02C0220FA7
:100DC000331F0A94E2F7242B2083EE89FF894081A8
:100DD0009C010E8C02C0220F331F0A94E2F7242BD1
:100DE0002083EE89FF8920810F8C02C0880F991F14
:100DF0000A94E2F7809582238083DF91CF911F913F
:100E00000F91FF90EF90DF90CF900895EFEAF3E01D
:100E10001382128288EE93E0A0E0B0E08483958391
:100E2000A683B7838EE093E09183808385E194E08D
:100E30009587848781ED93E09787868785EC90E09E
:100E4000918B808B84EC90E0938B828B80EC90E094
:100E5000958B848B81EC90E0978B868B82EC90E075
:100E6000918F808F86EC90E0938F828F84E0848FC7
:100E700083E0858F87E0868F85E0878F81E080A380
:100E80000895F8940C946C07A1E21A2EAA1BBB1BC0
:100E9000FD010DC0AA1FBB1FEE1FFF1FA217B30746
:100EA000E407F50720F0A21BB30BE40BF50B661F5C
:100EB000771F881F991F1A9469F760957095809520
:100EC00090959B01AC01BD01CF010895EE0FFF1F6E
:0C0ED0000590F491E02D0994F894FFCFF8
:100EDC000000000000000000000001000001000004
:100EEC0000010001010001000100000000000001F0
:100EFC0001000000000000010001000000000100E2
:100F0C0000000100000100000000000101000000D1
:100F1C0000000000000000000000000000000000C5
:100F2C0000000000000000000000000000000000B5
:100F3C0000000000000000000000000000000000A5
:100F4C000000000000000000000000000000000095
:100F5C000100000000000000000100000000010082
:100F6C000001010101010100010100010100010169
:100F7C000101010101010101010001010101000157
:100F8C000100000000000001000000000000000053
:100F9C000000000000000000000000000000000045
:100FAC000000000000000000000000000000000035
:100FBC000000000000000000000000000000000025
:100FCC000000000000000000000000000000000015
:100FDC000000000000000000000000000000000005
:100FEC0000000000000000000000000000000000F5
:100FFC0000000000000000000000000000000000E5
:10100C0000000000000000000000000000000000D4
:10101C0000000000000000000000000000000000C4
:10102C0000000000000000000000000000000000B4
:10103C0000000000000000000000000000000000A4
:10104C000000000000000000000000000000000094
:10105C000000000000000000000000000000000084
:10106C000000000000000000000000000000000074
:10107C000000000000000000000000000000000064
:10108C000000000000000000000000000000000054
:10109C000000000000000000000000000000000044
:1010AC000000000000000000000000000000000034
:1010BC000000000000000000000000000000000024
:1010CC000000000000000000000000000000000014
:1010DC000F0C0B0A09060304030200000000BD05F7
:0A10EC002604660592057605B2059C
:00000001FF
