:100000000C945D000C9485000C9485000C94850084
:100010000C9485000C9485000C9485000C9485004C
:100020000C9485000C9485000C9485000C9485003C
:100030000C9485000C9485000C9485000C9485002C
:100040000C942C030C9485000C9497050C94DA0501
:100050000C9485000C9485000C9485000C9485000C
:100060000C9485000C94850000000007000201003C
:100070000003040600000000000000000102040864
:100080001020408001020408102001020408102002
:10009000040404040404040402020202020203032E
:1000A0000303030300000000250028002B000000CC
:1000B0000000240027002A009D0611241FBECFEF58
:1000C000D4E0DEBFCDBF13E0A0E0B1E0E2E7FEE0A8
:1000D00002C005900D92A23EB107D9F725E0A2EE2D
:1000E000B3E001C01D92A132B207E1F710E0CDE507
:1000F000D0E004C02197FE010E943107CC35D10722
:10010000C9F70E94F0040C9400070C9400008823A7
:1001100079F041E050E022E030E090E048175907E4
:100120002CF4220F331F4F5F5F4FF8CFC9010895A2
:1001300081E090E00895CF92DF92EF92FF920F93CB
:100140001F93CF93DF9320E030E080E090E0AC019C
:10015000420F531FFA01E651FC4FDA01A65DBB4F77
:100160004C91408308968034910589F72F5F3F4F6B
:100170002830310551F702EE13E08AEEE82E83E0D5
:10018000F82E6701C0E0D0E08C2F0E948700F601B6
:1001900040819C01429FC001439F900D11249C010E
:1001A0002D0F311DD22F88E0C80ED11CCF5FC83073
:1001B00059F7F80121938F01FFEFEF1AFF0A23E0AF
:1001C0000A3E1207F1F6DF91CF911F910F91FF9038
:1001D000EF90DF90CF900895EF92FF921F93CF930F
:1001E000DF93182FC7E0D0E0EE24E394F12C60E019
:1001F000809108030E94C00497010C2E01C0220FB9
:100200000A94EAF7212311F061E001C060E08091D7
:100210000A030E94C00461E0809108030E94C004A8
:10022000219728F7DF91CF911F91FF90EF900895CC
:10023000CF93DF93D82FC62F60E0809109030E94EF
:10024000C0048D2F0E94EC008C2F0E94EC0060E017
:10025000809109030E94C00461E080910903DF914D
:10026000CF910C94C0040F931F93CF93DF934091D1
:100270000603C2EED3E080E4489FA001112480E091
:1002800090E019928C01040F151F20E030E0F90175
:10029000E80FF91FE65DFB4FD901A00FB11FAB5F5F
:1002A000BE4F6C916083285F3F4F2034310579F752
:1002B00001968830910529F7DF91CF911F910F9119
:1002C00008952F923F924F925F926F927F928F92FA
:1002D0009F92AF92BF92CF92DF92EF92FF920F93D5
:1002E0001F93CF93DF93CDB7DEB727970FB6F89460
:1002F000DEBF0FBECDBF6091E20381E00E94180116
:100300006091E30382E00E9418016091E40383E0BE
:100310000E9418016091E50384E00E941801609139
:10032000E60385E00E9418016091E70386E00E94E1
:1003300018016091E80387E00E9418016091E903C9
:1003400088E00E9418018091E7036FE10E94030793
:10035000E82FF0E0E55FFC4F648970E068547109B4
:10036000660F771F660F771F8AE00E94FC032AEE54
:1003700033E080E090E0F901E80FF91F1082019668
:1003800088309105C1F7285F3F4F64E02A32360775
:1003900081F7709107037983C12CD12C1F821E82B3
:1003A000860106511C4F40E050E02E803F8031E036
:1003B000231A31086E807F8062E0660E711C910105
:1003C0001B821A822A0181E0481A51085A0192E0E0
:1003D000A90EB11C2615370509F462C05D824C8256
:1003E0002F3FAFEF3A0721F477E0972E812C29C0F9
:1003F000922E832E26C0B981BB2391F12F3FEFEFC0
:100400003E0729F5892D982D6C817D816F3FAFEFD7
:100410007A0719F1683071053CF5DB017C0163E076
:10042000EE0CFF1C6A95E1F7EA0EFB1EF701E65D94
:10043000FB4FF080F1101BC0AC81BD811196BD83D4
:10044000AC83EC81FD81EA15FB05A9F626C02830B6
:100450003105C4F280E090E0D7CFA7E0B0E0DECF76
:10046000AC81BD81C901DACFA0E0B0E0D7CF6E8109
:100470007F818617970719F4A417B507E9F2089743
:10048000D8F6AF3F7FEFB707B9F21897A9F28A8184
:100490009B8101969B838A83CFCF2F5F3F4F9ACF5B
:1004A000FA01EC0DFD1DE65DFB4F8081811109C055
:1004B0002A813B8123303105B9F4E1E0D801EC9386
:1004C00013C0813089F42A813B812130310551F0FC
:1004D0006A817B81625071096230710518F4F801FC
:1004E000808302C0D8011C924F5F5F4F0F5F1F4F88
:1004F0004830510509F063CFEE81FF813196FF83CB
:10050000EE83F8E0CF0ED11C2E813F8128303105DB
:1005100009F046CF20E030E080E090E0AC01420FEF
:10052000531FFA01E65DFB4FDA01A651BC4F4C9117
:10053000408301968830910589F7285F3F4F20342A
:10054000310551F727960FB6F894DEBF0FBECDBF29
:10055000DF91CF911F910F91FF90EF90DF90CF909F
:10056000BF90AF909F908F907F906F905F904F90D3
:100570003F902F900C949B0040E855E260E070E0C3
:1005800087E794E00E9415060E9433010E949B00B9
:1005900061E080910A030E94840461E08091080375
:1005A0000E94840461E0809109030E94840461E058
:1005B0008AE00E94840461E08BE00E94840461E090
:1005C0008DE00E94840467E0809102010E9418017E
:1005D00060E0809104010E94180161E080910101B6
:1005E0000E94180160E0809100010E94180181E0E2
:1005F00090E090936D0480936C0480916C049091D2
:100600006D04893091054CF460E00E9418018091DE
:100610006C0490916D040196ECCF61E08091030130
:100620000C94180168EC70E080E090E00E949B035D
:100630000E94610180916B04813069F480916A04A9
:100640008F5F80936A0490910503891720F01092C0
:100650006A040C94330108951F920F920FB60F9203
:1006600011242F933F938F939F93AF93BF938091C8
:100670006F0490917004A0917104B0917204309154
:100680006E0423E0230F2D3720F40196A11DB11D28
:1006900005C026E8230F0296A11DB11D20936E040C
:1006A00080936F0490937004A0937104B0937204CC
:1006B0008091730490917404A0917504B0917604B4
:1006C0000196A11DB11D8093730490937404A093AF
:1006D0007504B0937604BF91AF919F918F913F9134
:1006E0002F910F900FBE0F901F9018953FB7F89461
:1006F0008091730490917404A0917504B091760474
:1007000026B5A89B05C02F3F19F00196A11DB11D6C
:100710003FBFBA2FA92F982F8827820F911DA11DA7
:10072000B11DBC01CD0142E0660F771F881F991FE4
:100730004A95D1F70895CF92DF92EF92FF92CF932F
:10074000DF936B017C010E947603EB01C114D1049D
:10075000E104F10479F00E9476036C1B7D0B683E86
:100760007340A0F381E0C81AD108E108F108C8512C
:10077000DC4FECCFDF91CF91FF90EF90DF90CF90E7
:100780000895789484B5826084BD84B5816084BD09
:1007900085B5826085BD85B5816085BDEEE6F0E0FA
:1007A000808181608083E1E8F0E010828081826056
:1007B0008083808181608083E0E8F0E080818160D7
:1007C0008083E1EBF0E0808184608083E0EBF0E007
:1007D000808181608083EAE7F0E0808184608083AB
:1007E0008081826080838081816080838081806855
:1007F00080831092C10008951F93CF93DF93182F29
:10080000EB0161E00E948404209711F460E004C0D1
:10081000CF3FD10539F461E0812FDF91CF911F9156
:100820000C94C004E12FF0E0E859FF4FE491E3306D
:10083000F9F048F4E130B9F0E230A1F584B5806216
:1008400084BDC8BD34C0E630E9F0E73019F1E430CA
:1008500049F580918000806280938000D0938B0066
:10086000C0938A0024C084B5806884BDC7BD1FC002
:1008700080918000806880938000D0938900C0932D
:10088000880015C08091B00080688093B000C0934C
:10089000B3000DC08091B00080628093B000C0931F
:1008A000B40005C0C038D1050CF0B5CFAFCFDF9193
:1008B000CF911F910895833081F028F4813099F011
:1008C0008230A1F008958630A9F08730B9F08430E5
:1008D000D1F4809180008F7D03C0809180008F775C
:1008E00080938000089584B58F7702C084B58F7D92
:1008F00084BD08958091B0008F7703C08091B000CF
:100900008F7D8093B0000895CF93DF9390E0FC013A
:10091000E458FF4F2491FC01E057FF4F8491882356
:1009200061F190E0880F991FFC01E255FF4FC591DE
:10093000D491FC01EC55FF4FA591B491611109C010
:100940009FB7F8948881209582238883EC912E2389
:100950000BC0623061F49FB7F8943881822F809584
:1009600083238883EC912E2B2C939FBF06C08FB7D7
:10097000F894E8812E2B28838FBFDF91CF910895C3
:100980001F93CF93DF93282F30E0F901E859FF4FF1
:100990008491F901E458FF4FD491F901E057FF4FDA
:1009A000C491CC23C9F0162F81110E945B04EC2F57
:1009B000F0E0EE0FFF1FEC55FF4FA591B4918FB7FC
:1009C000F894111105C09C91ED2FE095E92302C028
:1009D000EC91ED2BEC938FBFDF91CF911F91089598
:1009E0000E94C1030E94BC02C1EDD5E00E94120327
:1009F0002097E1F30E94D105F9CFFC0124853585CC
:100A0000F901E05CFF4F8081918132962081318134
:100A1000821B930B8F7399270895DC011C96ED912F
:100A2000FC911D97DF01A05CBF4F2D913C91119768
:100A300012968D919C9111972817390739F08D9155
:100A40009C91E80FF91F808190E008958FEF9FEF50
:100A50000895FC01A485B585FD01E05CFF4F208170
:100A600031813296808191812817390779F0808110
:100A70009181A80FB91F8C91208131812F5F3F4F49
:100A80002F7333273183208390E008958FEF9FEFFA
:100A90000895FC0181A1882329F0A489B5898C914E
:100AA00086FFFBCF11A208950F931F93CF93DF937F
:100AB000FC01A685B7858D01005C1F4FE801888188
:100AC000998101968F739927AD014E5B5F4FEA01C3
:100AD0002881398182179307D1F3E8012881398170
:100AE000A20FB31F6C93A685B785A05CBF4F11966C
:100AF0009C938E93A689B7892C9181E090E0078C16
:100B000002C0880F991F0A94E2F7822B8C9381E030
:100B100081A30488F589E02D80818064808381E051
:100B200090E0DF91CF911F910F91089508951F924A
:100B30000F920FB60F9211242F934F935F938F93C1
:100B40009F93EF93FF938091C00082FD1CC0209182
:100B5000C60080911D0590911E0501968F739927FF
:100B600040911F05509120058417950771F0E09181
:100B70001D05F0911E05E352FB4F208390931E0547
:100B800080931D0502C08091C600FF91EF919F9157
:100B90008F915F914F912F910F900FBE0F901F90EB
:100BA000189587E794E00E94FD04892B11F00C94BE
:100BB000960508951F920F920FB60F9211242F934E
:100BC0003F938F939F93EF93FF932091D90430919C
:100BD000DA048091DB049091DC042817390731F4A2
:100BE0008091C1008F7D8093C10014C0E091DB042F
:100BF000F091DC04E756FB4F20818091DB0490915B
:100C0000DC0401968F7399279093DC048093DB04B6
:100C10002093C600FF91EF919F918F913F912F916B
:100C20000F900FBE0F901F901895CF92DF92EF920A
:100C3000FF920F931F93CF93DF93EC016A017B0127
:100C40004115514E6105710509F1EC89FD8981E07D
:100C500090E008A002C0880F991F0A94E2F78083F1
:100C600060E079E08DE390E0A70196010E940F0714
:100C700089019A01015011092109310936952795F9
:100C800017950795980101151041A8F0EC89FD8989
:100C9000108260E874E88EE190E0A70196010E945E
:100CA0000F07DA01C9010197A109B109B695A79506
:100CB000979587959C01E889F9893083EA89FB89B2
:100CC000208319A2EE89FF89408181E090E09C0198
:100CD0000C8C02C0220F331F0A94E2F7242B2083CE
:100CE000EE89FF8940819C010D8C02C0220F331FC9
:100CF0000A94E2F7242B2083EE89FF8940819C012E
:100D00000E8C02C0220F331F0A94E2F7242B20839B
:100D1000EE89FF8920810F8C02C0880F991F0A94E9
:100D2000E2F7809582238083DF91CF911F910F910D
:100D3000FF90EF90DF90CF900895E7E7F4E0138203
:100D4000128288EE93E0A0E0B0E084839583A683CE
:100D5000B78385ED93E0918380838DED94E0958753
:100D6000848789E994E09787868785EC90E0918B6A
:100D7000808B84EC90E0938B828B80EC90E0958B61
:100D8000848B81EC90E0978B868B82EC90E0918F46
:100D9000808F86EC90E0938F828F84E0848F83E055
:100DA000858F87E0868F85E0878F81E080A3089517
:100DB000CF92DF92EF92FF920F931F93CF93DF9327
:100DC0006C01EB017B01E40EF51E00E010E0CE1596
:100DD000DF0561F06991D601ED91FC910190F08100
:100DE000E02DC6010995080F191FF1CFC801DF9149
:100DF000CF911F910F91FF90EF90DF90CF900895CA
:100E0000F8940C943707991B79E004C0991F961742
:100E100008F0961B881F7A95C9F780950895A1E27E
:100E20001A2EAA1BBB1BFD010DC0AA1FBB1FEE1F64
:100E3000FF1FA217B307E407F50720F0A21BB30BAF
:100E4000E40BF50B661F771F881F991F1A9469F72B
:100E500060957095809590959B01AC01BD01CF0187
:100E60000895EE0FFF1F0590F491E02D0994F8947A
:020E7000FFCFB2
:100E72000F0C0B0A09000000010100000000000134
:100E8200000001000000010000000001000100005C
:100E9200000000000101000000000000010001004C
:100EA200000000010000000100000100000000003D
:100EB200010100000000000000000000000000002E
:100EC2000000000000000000000000000000000020
:100ED200010101000000000101010000000000000A
:100EE2000000000000000000000000000000000000
:100EF20000000000000000000000000000000000F0
:100F020000000000000000000000000000000000DF
:100F120000010000000000000101010000000000CB
:100F220000010000000000000000000000000000BE
:100F320000000000000000000000000000000000AF
:100F4200000000000000000000000000000000009F
:100F5200000100000000000101000000000000008C
:100F6200000101000000000001000000000000007C
:100F7200000000000000000000000000000000016E
:100F8200010100000000000100010000000000015A
:100F9200000100000000000000000000000000014D
:100FA200000100000000000100010000000000013B
:100FB200010100000000010000000000000000012B
:100FC200000000000001010100000000000000001C
:100FD200000000000000000000000000000000000F
:100FE20000000000000000000000000000000000FF
:100FF20000000000000000000000000000000000EF
:1010020000000000000001010101000000010000D9
:1010120000010000000000000001000000010000CB
:1010220001000000000000000000000000000000BD
:1010320000000000000000000001010000000000AC
:101042000001000100000100000101000000000198
:10105200010000000000000001010000000000018A
:10106200000101000000000000000000000000007C
:1010720000000000000405010403024D69786F6C52
:10108200796469616E000000000000000000004801
:101092004A4C4D4F51525400000000084D616A6F96
:1010A200725375733400000000000000000000005D
:1010B200484D484D4F484D5400000000084D616AAC
:1010C2006F725375733700000000000000000000CB
:1010D20000484D4F52484D4F5400000000084D61EA
:1010E2006A6F72370000000000000000000000007C
:1010F2000000484A4F52484A4F5400000000084D31
:10110200696E6F7200000000000000000000000025
:10111200000000484A4B4D4F505354000000000855
:101122004D616A6F720000000000000000000000C4
:1011320000000000484A4C4D4F515354000000003B
:1011420008000000005405D806FD0429050D0549D4
:02115200050096
:00000001FF
