:100000000C945C000C9479000C9479000C947900A9
:100010000C9479000C9479000C9479000C9479007C
:100020000C9479000C9479000C9479000C9479006C
:100030000C9479000C9479000C9479000C9479005C
:100040000C9442030C9479000C9479000C94790080
:100050000C9479000C9479000C9479000C9479003C
:100060000C9479000C947900000000070002010054
:100070000003040600000000000000000102040864
:100080001020408001020408102001020408102002
:10009000040404040404040402020202020203032E
:1000A0000303030300000000250028002B000000CC
:1000B0000000240027002A0011241FBECFEFD8E043
:1000C000DEBFCDBF13E0A0E0B1E0E8E4FAE002C09B
:1000D00005900D92A03DB107D9F724E0A0EDB3E063
:1000E00001C01D92A836B207E1F70E9406050C94E4
:1000F00013050C940000882379F041E050E022E0E1
:1001000030E090E0481759072CF4220F331F4F5F5F
:100110005F4FF8CFC901089581E090E00895CF9234
:10012000DF92EF92FF920F931F93CF93DF9320E024
:1001300030E080E090E0AC01420F531FFA01E8523A
:10014000FC4FDA01A85EBB4F4C9140830896803487
:10015000910589F72F5F3F4F2830310551F700EDAA
:1001600013E088EDE82E83E0F82E6701C0E0D0E0D0
:100170008C2F0E947B00F60140819C01429FC001B0
:10018000439F900D11249C012D0F311DD22F88E02B
:10019000C80ED11CCF5FC83059F7F80121938F01E9
:1001A000FFEFEF1AFF0A23E0083D1207F1F6DF9197
:1001B000CF911F910F91FF90EF90DF90CF90089516
:1001C000EF92FF921F93CF93DF93182FC7E0D0E0F9
:1001D000EE24E394F12C60E0809107030E94D604A2
:1001E00097010C2E01C0220F0A94EAF7212311F087
:1001F00061E001C060E0809109030E94D60461E0E3
:10020000809107030E94D604219728F7DF91CF91B0
:100210001F91FF90EF900895CF93DF93D82FC62FB3
:1002200060E0809108030E94D6048D2F0E94E000B8
:100230008C2F0E94E00060E0809108030E94D604A9
:1002400061E080910803DF91CF910C94D6040F9365
:100250001F93CF93DF9340915B04C0EDD3E080E424
:10026000489FA001112480E090E019928C01040FB6
:10027000151F20E030E0F901E80FF91FE85EFB4FA1
:10028000D901A00FB11FAB5FBE4F6C916083285F97
:100290003F4F2034310579F701968830910529F7D1
:1002A000DF91CF911F910F9108952F923F924F921E
:1002B0005F926F927F928F929F92AF92BF92CF92F6
:1002C000DF92EF92FF920F931F93CF93DF93CDB7FF
:1002D000DEB727970FB6F894DEBF0FBECDBF28ED6F
:1002E00033E080E090E0F901E80FF91F10820196F9
:1002F00088309105C1F7285F3F4F64E02831360709
:1003000081F7709106037983C12CD12C1F821E8244
:10031000860108521C4F40E050E02E803F8031E0C3
:10032000231A31086E807F8062E0660E711C910195
:100330001B821A822A0181E0481A51085A0192E070
:10034000A90EB11C2615370509F462C05D824C82E6
:100350002F3FAFEF3A0721F477E0972E812C29C089
:10036000922E832E26C0B981BB2391F12F3FEFEF50
:100370003E0729F5892D982D6C817D816F3FAFEF68
:100380007A0719F1683071053CF5DB017C0163E007
:10039000EE0CFF1C6A95E1F7EA0EFB1EF701E85E22
:1003A000FB4FF080F1101BC0AC81BD811196BD8365
:1003B000AC83EC81FD81EA15FB05A9F626C0283047
:1003C0003105C4F280E090E0D7CFA7E0B0E0DECF07
:1003D000AC81BD81C901DACFA0E0B0E0D7CF6E819A
:1003E0007F818617970719F4A417B507E9F20897D4
:1003F000D8F6AF3F7FEFB707B9F21897A9F28A8115
:100400009B8101969B838A83CFCF2F5F3F4F9ACFEB
:10041000FA01EC0DFD1DE85EFB4F8081811109C0E2
:100420002A813B8123303105B9F4E1E0D801EC9316
:1004300013C0813089F42A813B812130310551F08C
:100440006A817B81625071096230710518F4F8018C
:10045000808302C0D8011C924F5F5F4F0F5F1F4F18
:100460004830510509F063CFEE81FF813196FF835B
:10047000EE83F8E0CF0ED11C2E813F81283031056C
:1004800009F046CF20E030E080E090E0AC01420F80
:10049000531FFA01E85EFB4FDA01A852BC4F4C91A2
:1004A000408301968830910589F7285F3F4F2034BB
:1004B000310551F727960FB6F894DEBF0FBECDBFBA
:1004C000DF91CF911F910F91FF90EF90DF90CF9030
:1004D000BF90AF909F908F907F906F905F904F9064
:1004E0003F902F900C948F00E8E1F4E0208180E0B1
:1004F00090E0DF01A80FB91F11963C9111973C9332
:10050000019687309105A9F72783389684E0E8356E
:10051000F80761F70E948F00809158048F5F883040
:1005200018F48093580408951092580408950E9476
:1005300027010E948F0061E0809109030E949A04C4
:1005400061E0809107030E949A0461E080910803B2
:100550000E949A0461E08AE00E949A0461E08BE0C4
:100560000E949A0461E08DE00E949A0467E0809105
:1005700002010E940C0160E0809104010E940C01C4
:1005800061E0809101010E940C0160E08091000116
:100590000E940C0181E090E090935D0480935C04E4
:1005A00080915C0490915D04893091054CF460E089
:1005B0000E940C0180915C0490915D040196ECCF47
:1005C00061E0809103010C940C016091D00381E003
:1005D0000E940C016091D10382E00E940C016091A5
:1005E000D20383E00E940C016091D30384E00E9457
:1005F0000C016091D40385E00E940C016091D50349
:1006000086E00E940C016091D60387E00E940C01F5
:100610006091D70388E00E940C018091D5036FE1BF
:100620000E941605E82FF0E0E65FFC4F65A970E038
:1006300068547109660F771F660F771F8AE00E9462
:10064000120480915E04882319F00E94550102C0B3
:100650000E94740268EC70E080E090E00E94B103B8
:1006600080915A04813069F4809159048F5F80939E
:10067000590490910503891720F0109259040C94A5
:10068000270108951F920F920FB60F9211242F93F6
:100690003F938F939F93AF93BF938091600490910A
:1006A0006104A0916204B091630430915F0423E07F
:1006B000230F2D3720F40196A11DB11D05C026E89A
:1006C000230F0296A11DB11D20935F048093600447
:1006D00090936104A0936204B093630480916404D6
:1006E00090916504A0916604B09167040196A11DE4
:1006F000B11D8093640490936504A0936604B09345
:100700006704BF91AF919F918F913F912F910F906F
:100710000FBE0F901F9018953FB7F8948091640416
:1007200090916504A0916604B091670426B5A89BDA
:1007300005C02F3F19F00196A11DB11D3FBFBA2F73
:10074000A92F982F8827820F911DA11DB11DBC01D3
:10075000CD0142E0660F771F881F991F4A95D1F798
:100760000895CF92DF92EF92FF92CF93DF936B01C8
:100770007C010E948C03EB01C114D104E104F1045B
:1007800079F00E948C036C1B7D0B683E7340A0F3D4
:1007900081E0C81AD108E108F108C851DC4FECCF5C
:1007A000DF91CF91FF90EF90DF90CF9008957894F4
:1007B00084B5826084BD84B5816084BD85B5826066
:1007C00085BD85B5816085BDEEE6F0E08081816004
:1007D0008083E1E8F0E01082808182608083808104
:1007E00081608083E0E8F0E0808181608083E1EBDC
:1007F000F0E0808184608083E0EBF0E080818160C4
:100800008083EAE7F0E08081846080838081826079
:100810008083808181608083808180688083109262
:10082000C10008951F93CF93DF93182FEB0161E070
:100830000E949A04209711F460E004C0CF3FD105D4
:1008400039F461E0812FDF91CF911F910C94D60490
:10085000E12FF0E0E859FF4FE491E330F9F048F47C
:10086000E130B9F0E230A1F584B5806284BDC8BD45
:1008700034C0E630E9F0E73019F1E43049F5809111
:100880008000806280938000D0938B00C0938A00A8
:1008900024C084B5806884BDC7BD1FC0809180001E
:1008A000806880938000D0938900C093880015C031
:1008B0008091B00080688093B000C093B3000DC0F9
:1008C0008091B00080628093B000C093B40005C0F6
:1008D000C038D1050CF0B5CFAFCFDF91CF911F91CC
:1008E0000895833081F028F4813099F08230A1F0AE
:1008F00008958630A9F08730B9F08430D1F4809122
:1009000080008F7D03C0809180008F77809380006E
:10091000089584B58F7702C084B58F7D84BD089516
:100920008091B0008F7703C08091B0008F7D80935D
:10093000B0000895CF93DF9390E0FC01E458FF4F9F
:100940002491FC01E057FF4F8491882361F190E0EE
:10095000880F991FFC01E255FF4FC591D491FC010E
:10096000EC55FF4FA591B491611109C09FB7F89460
:100970008881209582238883EC912E230BC06230DE
:1009800061F49FB7F8943881822F80958323888300
:10099000EC912E2B2C939FBF06C08FB7F894E88163
:1009A0002E2B28838FBFDF91CF9108951F93CF9374
:1009B000DF93282F30E0F901E859FF4F8491F901C6
:1009C000E458FF4FD491F901E057FF4FC491CC2375
:1009D000C9F0162F81110E947104EC2FF0E0EE0F88
:1009E000FF1FEC55FF4FA591B4918FB7F8941111EB
:1009F00005C09C91ED2FE095E92302C0EC91ED2B11
:100A0000EC938FBFDF91CF911F9108950E94D70380
:100A10000E949702C0E0D0E00E94E5022097E1F337
:100A20000E940000F9CFF8940C942205991B79E0FC
:100A300004C0991F961708F0961B881F7A95C9F76E
:080A400080950895F894FFCFA2
:100A48000F0C0B0A09000000010100000000000162
:100A5800000001000000010000000001000100008A
:100A6800000000000101000000000000010001007A
:100A7800000000010000000100000100000000006B
:100A8800010100000000000000000000000000005C
:100A9800000000000000000000000000000000004E
:100AA8000101010000000001010100000000000038
:100AB800000000000000000000000000000000002E
:100AC800000000000000000000000000000000001E
:100AD800000000000000000000000000000000000E
:100AE80000010000000000000101010000000000FA
:100AF80000010000000000000000000000000000ED
:100B080000000000000000000000000000000000DD
:100B180000000000000000000000000000000000CD
:100B280000010000000000010100000000000000BA
:100B380000010100000000000100000000000000AA
:100B4800000000000000000000000000000000019C
:100B58000101000000000001000100000000000188
:100B6800000100000000000000000000000000017B
:100B78000001000000000001000100000000000169
:100B88000101000000000100000000000000000159
:100B9800000000000001010100000000000000004A
:100BA800000000000000000000000000000000003D
:100BB800000000000000000000000000000000002D
:100BC800000000000000000000000000000000001D
:100BD8000000000000000101010100000001000008
:100BE80000010000000000000001000000010000FA
:100BF80001000000000000000000000000000000EC
:100C080000000000000000000001010000000000DA
:100C180000010001000001000001010000000001C6
:100C280001000000000000000101000000000001B8
:100C380000010100000000000000000000000000AA
:100C4800000000000004010403024D69786F6C790C
:100C58006469616E00000000000000000000484A5E
:100C68004C4D4F51525400000000084D616A6F729C
:100C780053757334000000000000000000000048B5
:100C88004D484D4F484D5400000000084D616A6FB3
:100C98007253757337000000000000000000000068
:100CA800484D4F52484D4F5400000000084D616AAE
:100CB8006F72370000000000000000000000000014
:100CC80000484A4F52484A4F5400000000084D69F6
:100CD8006E6F7200000000000000000000000000BD
:100CE8000000484A4B4D4F50535400000000084D37
:100CF800616A6F7200000000000000000000000040
:100D0800000000484A4C4D4F515354000000000861
:00000001FF
