:100000000C945D000C9485000C9485000C94850084
:100010000C9485000C9485000C9485000C9485004C
:100020000C9485000C9485000C9485000C9485003C
:100030000C9485000C9485000C9485000C9485002C
:100040000C94C2020C9485000C94C0040C9403051B
:100050000C9485000C9485000C9485000C9485000C
:100060000C9485000C94850000000007000201003C
:100070000003040600000000000000000102040864
:100080001020408001020408102001020408102002
:10009000040404040404040402020202020203032E
:1000A0000303030300000000250028002B000000CC
:1000B0000000240027002A00BF0511241FBECFEF37
:1000C000D8E0DEBFCDBF13E0A0E0B1E0EEE0FFE09E
:1000D00002C005900D92A032B107D9F714E0A0E25A
:1000E000B3E001C01D92AE35B107E1F710E0CAEBF5
:1000F000D0E004C02297FE010E948107C83BD107CF
:10010000C9F70E9415060C945A070C940000882326
:1001100079F041E050E022E030E090E048175907E4
:100120002CF4220F331F4F5F5F4FF8CFC9010895A2
:1001300081E090E00895CF92DF92EF92FF920F93CB
:100140001F93CF93DF9380E090E020E030E0BC018C
:10015000685D7C4FAC0148595C4FFB01E20FF31F17
:10016000DA01A20FB31FAC91A083285F3F4F203468
:10017000310599F701968830910539F780910B0385
:10018000E0910C0328E0E29FF0011124E80FF11D3B
:10019000E85DFC4F81E08083C0E2D3E008E213E039
:1001A000D12CE12CF12CC12C8D2D0E948700F8015F
:1001B000EE0DFF1D40819C01429FC001439F900DA9
:1001C00011248C0D911D38E0E30EF11CD39428E02E
:1001D000D21611F0C82EE8CF89930F5F1F4F33E07E
:1001E000C832D307E9F6DF91CF911F910F91FF90AD
:1001F000EF90DF90CF900895CF93DF93E8E6F3E0A0
:10020000AFE6B3E0208180E090E0EF01C80FD91F96
:1002100039813883019687309105B9F72C93389648
:10022000189683E0E83AF80769F7DF91CF910C94CC
:100230009B00FF920F931F93CF93DF93F82EC7E09D
:10024000D0E001E010E060E080910D030E94F20335
:1002500098010C2E01C0220F0A94EAF72F2111F009
:1002600061E001C060E080910F030E94F20361E051
:1002700080910D030E94F203219728F7DF91CF911F
:100280001F910F91FF900895CF93DF93D82FC62F22
:1002900060E080910E030E94F2038D2F0E941901ED
:1002A0008C2F0E94190160E080910E030E94F203DE
:1002B00061E080910E03DF91CF910C94F203CF9314
:1002C000DF9340E855E260E070E084EB93E00E9449
:1002D0003E05E0E2F3E080E090E0119220E030E0C3
:1002E000BC0168597C4FAC014A5F5E4FDB01A20F35
:1002F000B31FEA01C20FD31FC881CC93285F3F4FC1
:100300002034310599F701968830910531F70E9424
:100310009B0061E080910F030E94B90361E080912E
:100320000D030E94B90361E080910E030E94B9039E
:1003300061E08BE00E94B90361E08DE00E94F2036E
:1003400067E0809108030E94440160E080910A0305
:100350000E94440161E0809107030E94440160E033
:10036000809106030E94440181E090E09093A903EC
:100370008093A8038091A8039091A90389309105E7
:100380004CF460E00E9444018091A8039091A9037D
:100390000196ECCF61E080910903DF91CF910C943D
:1003A00044010F931F93CF93DF930091AA03C8E6F4
:1003B000D3E010E0812F0E94870048819C01429F7A
:1003C000C001439F900D1124800F911D682F289626
:1003D0001F5F183011F0082FEDCF8093AA0370E053
:1003E00086E00E94630280910B03E0910C0338E0E9
:1003F000E39FF0011124E80FF11DE859FC4F6081E3
:1004000070E08BE00E9463024AE050E06091AA0332
:1004100084EB93E00E9443076091AA0370E06F5F52
:100420007F4FE5E075956795EA95E1F74AE050E082
:1004300084EB93E00E941E0780910B03E0910C0374
:1004400098E0E99FF0011124E80FF11DE859FC4FF5
:100450004AE050E0608184EB93E00E9443076091A2
:10046000200381E00E9444016091210382E00E9408
:1004700044016091220383E00E94440160912303C0
:1004800084E00E9444016091240385E00E944401BD
:100490006091250386E00E9444016091260387E075
:1004A0000E9444016091270388E00E9444010E9459
:1004B000FC0068EC70E080E090E0DF91CF911F914C
:1004C0000F910C942F031F93CF93DF93182FEB0101
:1004D00061E00E94B903209711F460E004C0CF3FAF
:1004E000D10539F461E0812FDF91CF911F910C94F8
:1004F000F203E12FF0E0E859FF4FE491E330F9F027
:1005000048F4E130B9F0E230A1F584B5806284BDF1
:10051000C8BD34C0E630E9F0E73019F1E43049F500
:1005200080918000806280938000D0938B00C09384
:100530008A0024C084B5806884BDC7BD1FC0809177
:100540008000806880938000D0938900C0938800E9
:1005500015C08091B00080688093B000C093B30054
:100560000DC08091B00080628093B000C093B40051
:1005700005C0C038D1050CF0B5CFAFCFDF91CF911A
:100580001F9108951F920F920FB60F9211242F936F
:100590003F938F939F93AF93BF938091AC039091C0
:1005A000AD03A091AE03B091AF033091AB0323E054
:1005B000230F2D3720F40196A11DB11D05C026E89B
:1005C000230F0296A11DB11D2093AB038093AC03B2
:1005D0009093AD03A093AE03B093AF038091B003AB
:1005E0009091B103A091B203B091B3030196A11D04
:1005F000B11D8093B0039093B103A093B203B09365
:10060000B303BF91AF919F918F913F912F910F9025
:100610000FBE0F901F9018953FB7F8948091B003CC
:100620009091B103A091B203B091B30326B5A89BFA
:1006300005C02F3F19F00196A11DB11D3FBF6627D0
:10064000782F892F9A2F620F711D811D911D42E015
:10065000660F771F881F991F4A95D1F70895CF928B
:10066000DF92EF92FF92CF93DF936B017C010E94A8
:100670000C03EB01C114D104E104F10479F00E94F0
:100680000C036C1B7D0B683E7340A0F381E0C81A1D
:10069000D108E108F108C851DC4FECCFDF91CF91D0
:1006A000FF90EF90DF90CF900895789484B58260AA
:1006B00084BD84B5816084BD85B5826085BD85B506
:1006C000816085BDEEE6F0E0808181608083E1E8B5
:1006D000F0E01082808182608083808181608083ED
:1006E000E0E8F0E0808181608083E1EBF0E08081F0
:1006F00084608083E0EBF0E0808181608083EAE7C2
:10070000F0E080818460808380818260808380814A
:10071000816080838081806880831092C100089509
:10072000833081F028F4813099F08230A1F008956F
:100730008630A9F08730B9F08430D1F48091800000
:100740008F7D03C0809180008F7780938000089513
:1007500084B58F7702C084B58F7D84BD0895809164
:10076000B0008F7703C08091B0008F7D8093B00080
:100770000895CF93DF9390E0FC01E458FF4F24915C
:10078000FC01E057FF4F8491882349F190E0880FE6
:10079000991FFC01E255FF4FA591B4918C559F4FD5
:1007A000FC01C591D4919FB7611108C0F8948C9158
:1007B000209582238C93888182230AC0623051F471
:1007C000F8948C91322F309583238C938881822BDF
:1007D000888304C0F8948C91822B8C939FBFDF9107
:1007E000CF9108950F931F93CF93DF931F92CDB7AF
:1007F000DEB7282F30E0F901E859FF4F8491F90165
:10080000E458FF4F1491F901E057FF4F0491002382
:10081000C9F0882321F069830E9490036981E02F49
:10082000F0E0EE0FFF1FEC55FF4FA591B4919FB77D
:10083000F8948C91611103C01095812301C0812B24
:100840008C939FBF0F90DF91CF911F910F910895CF
:10085000FC0124853585F901E05CFF4F80819181A1
:10086000F901EE5BFF4F20813181821B930B8F7367
:1008700099270895FC0184859585FC01E05CFF4F74
:1008800040815181FC01EE5BFF4F20813181421795
:10089000530741F00190F081E02DE80FF91F8081AE
:1008A00090E008958FEF9FEF0895FC018485958572
:1008B000FC01E05CFF4F40815181FC01EE5BFF4F8A
:1008C000208131814217530779F0A081B181A80FAF
:1008D000B91F8C91208131812F5F3F4F2F733327B8
:1008E0003183208390E008958FEF9FEF0895FC01FE
:1008F00081A1882329F0A489B5898C9186FFFBCF3B
:1009000011A20895CF93DF93FC0126853785D90185
:10091000A05CBF4F8D919C91119701968F73992781
:10092000E901CE5BDF4F4881598184179507D9F3E0
:100930000D90BC91A02DA20FB31F6C93A685B78517
:10094000A05CBF4F11969C938E93A689B7892C917A
:1009500081E090E0078C02C0880F991F0A94E2F7AB
:10096000282B2C9381E081A30488F589E02D8081D8
:100970008064808381E090E0DF91CF9108950895B5
:100980001F920F920FB60F9211242F933F934F9304
:100990008F939F93EF93FF938091C00082FD1CC0C3
:1009A0004091C60080915A0490915B0401968F7328
:1009B000992720915C0430915D048217930771F0B0
:1009C000E0915A04F0915B04E65EFB4F4083909304
:1009D0005B0480935A0402C08091C600FF91EF919E
:1009E0009F918F914F913F912F910F900FBE0F903C
:1009F0001F90189584EB93E00E942804892B11F036
:100A00000C94BF0408951F920F920FB60F921124F9
:100A10002F933F938F939F93EF93FF93209116040F
:100A20003091170480911804909119042817390700
:100A300031F48091C1008F7D8093C10014C0E0919A
:100A40001804F0911904EA52FC4F20818091180497
:100A50009091190401968F739927909319048093AC
:100A600018042093C600FF91EF919F918F913F91C1
:100A70002F910F900FBE0F901F901895CF92DF927D
:100A8000EF92FF92CF93DF93EC016A017B01411556
:100A900081EE580761057105F9F0EC89FD8981E067
:100AA00090E008A002C0880F991F0A94E2F78083A3
:100AB00060E079E08DE390E0A70196010E945D0778
:100AC0002150310941095109569547953795279588
:100AD000211580E1380798F0EC89FD89108260E8E3
:100AE00074E88EE190E0A70196010E945D07215015
:100AF0003109410951095695479537952795E88958
:100B0000F9893083EA89FB89208319A2EE89FF895C
:100B1000408181E090E09C010C8C02C0220F331FC9
:100B20000A94E2F7422B4083EE89FF8940819C01C1
:100B30000D8C02C0220F331F0A94E2F7422B408330
:100B4000EE89FF8940819C010E8C02C0220F331F69
:100B50000A94E2F7422B4083EE89FF8920810F8CB3
:100B600002C0880F991F0A94E2F780958223808340
:100B7000DF91CF91FF90EF90DF90CF90089510928A
:100B8000B7031092B60388EE93E0A0E0B0E0809344
:100B9000B8039093B903A093BA03B093BB0384E165
:100BA00093E09093B5038093B4038AE194E090932B
:100BB000C1038093C00386ED93E09093C3038093B9
:100BC000C20385EC90E09093C5038093C40384EC4A
:100BD00090E09093C7038093C60380EC90E09093DD
:100BE000C9038093C80381EC90E09093CB0380937A
:100BF000CA0382EC90E09093CD038093CC0386EC03
:100C000090E09093CF038093CE0384E08093D00351
:100C100083E08093D10387E08093D20385E08093C3
:100C2000D30381E08093D40308950E9455030E946A
:100C30005F01CAEFD4E00E94D1012097E1F30E9446
:100C4000FA04F9CFCF92DF92EF92FF920F931F93A6
:100C5000CF93DF936C017A01EB01E60EF71E00E003
:100C600010E0CE15DF0561F06991D601ED91FC91A0
:100C70000190F081E02DC6010995080F191FF1CFF1
:100C8000C801DF91CF911F910F91FF90EF90DF90FE
:100C9000CF9008956115710581F0DB010D90002062
:100CA000E9F7AD0141505109461B570BDC01ED91AD
:100CB000FC910280F381E02D099480E090E008959A
:100CC000DC01ED91FC910190F081E02D09940F93EE
:100CD0001F93CF93DF93EC016DE00E9460068C01BF
:100CE0006AE0CE010E946006800F911FDF91CF91D4
:100CF0001F910F9108958F929F92AF92BF92CF92C2
:100D0000DF92EF92FF920F931F93CF93DF93CDB7B4
:100D1000DEB7A1970FB6F894DEBF0FBECDBF7C0142
:100D2000C42EE52FCB01D22E19A221E02D1510F0F3
:100D30002AE0D22E8E010F5D1F4F8D2C912CA12CFD
:100D4000B12C6C2D7E2FA50194010E945D078C2D86
:100D5000D29E80191124015011098A3014F4805D4B
:100D600001C0895CF80180832115310541055105D9
:100D700021F0C22EE32FCA01E4CFB801C7010E94BF
:100D80004A06A1960FB6F894DEBF0FBECDBFDF9125
:100D9000CF911F910F91FF90EF90DF90CF90BF9078
:100DA000AF909F908F900895CF92DF92EF92FF9235
:100DB0000F931F93CF93DF93EC016A017B01211501
:100DC000310579F4E881F9810190F081E02D642FFB
:100DD000DF91CF911F910F91FF90EF90DF90CF9017
:100DE00009942A303105E9F477FF1AC06DE20E94B8
:100DF00060068C0144275527BA014C195D096E091C
:100E00007F092AE0CE010E947B06800F911FDF91AF
:100E1000CF911F910F91FF90EF90DF90CF900895A9
:100E20002AE0B701A601CE01DF91CF911F910F916A
:100E3000FF90EF90DF90CF900C947B060F931F9361
:100E4000CF93DF93EC019A01AB01662757FD6095C4
:100E5000762F0E94D4068C01CE010E946706800F77
:100E6000911FDF91CF911F910F91089521153105A9
:100E700041F4DC01ED91FC910190F081E02D642FB3
:100E800009940C947B060F931F93CF93DF93EC018F
:100E90009A01462F50E060E070E00E9436078C0116
:100EA000CE010E946706800F911FDF91CF911F91A5
:100EB0000F910895F8940C948507A1E21A2EAA1BAD
:100EC000BB1BFD010DC0AA1FBB1FEE1FFF1FA217FA
:100ED000B307E407F50720F0A21BB30BE40BF50BF7
:100EE000661F771F881F991F1A9469F76095709580
:100EF000809590959B01AC01BD01CF010895EE0F47
:0E0F0000FF1F0590F491E02D0994F894FFCFA7
:100F0E0000005E0420000000000000000000000051
:100F1E0001000001000000010001010001000100BC
:100F2E0000000000000101000000000000010001AF
:100F3E0000000000010000000100000100000000A0
:100F4E000001010000000000000000000000000091
:100F5E000000000000000000000000000000000083
:100F6E000000000000000000000000000000000073
:100F7E000000000000000000000000000000000063
:100F8E000000000000000100000000000001000150
:100F9E00000000000100000101010101010001013A
:100FAE000001010001010101010101010101010026
:100FBE00010101010001010000000000000100001C
:100FCE000000000000000000000000000000000013
:100FDE000000000000000000000000000000000003
:100FEE0000000000000000000000000000000000F3
:100FFE0000000000000000000000000000000000E3
:10100E0000000000000000000000000000000000D2
:10101E0000000000000000000000000000000000C2
:10102E0000000000000000000000000000000000B2
:10103E0000000000000000000000000000000000A2
:10104E000000000000000000000000000000000092
:10105E000000000000000000000000000000000082
:10106E000000000000000000000000000000000072
:10107E000000000000000000000000000000000062
:10108E000000000000000000000000000000000052
:10109E000000000000000000000000000000000042
:1010AE000000000000000000000000000000000032
:1010BE000000000000000000000000000000000022
:1010CE000000000000000000000000000000000012
:1010DE000000000000000000000000000000000002
:1010EE0000000000000000000000000000000000F2
:1010FE0000000000000000000000000000000000E2
:10110E000000000000000F0C0B0A09060304030286
:10111E000000000082042206280455043A047704D5
:00000001FF
