:100000000C9461000C947E000C947E000C947E0095
:100010000C947E000C947E000C947E000C947E0068
:100020000C947E000C947E000C947E000C947E0058
:100030000C947E000C947E000C947E000C947E0048
:100040000C94D7010C947E000C947E000C947E00DE
:100050000C947E000C947E000C947E000C947E0028
:100060000C947E000C947E0000000007000201004A
:100070000003040600000000000000000102040864
:100080001020408001020408102001020408102002
:10009000040404040404040402020202020203032E
:1000A00003030303000000002300260029000000D2
:1000B0000000250028002B0000000000240027007D
:1000C0002A0011241FBECFEFD8E0DEBFCDBF11E064
:1000D000A0E0B1E0EAEEF6E002C005900D92A63095
:1000E000B107D9F711E0A6E0B1E001C01D92A53239
:1000F000B107E1F70E9429030C9436030C94000029
:10010000882379F041E050E022E030E090E04817A9
:1001100059072CF4220F331F4F5F5F4FF8CFC901EF
:10012000089581E090E0089561E082E00E949102EC
:1001300061E08CE00E94910261E084E00E94910203
:1001400060E082E00E94CA0260E08CE00C94CA0287
:100150000F931F93CF93DF93EC010E9400038E0156
:100160000B5F1E4F019739F460E08C2F0E94CA028A
:10017000F801108207C061E08C2F0E94CA0281E062
:10018000F8018083DF91CF911F910F9108958F9295
:100190009F92AF92BF92CF92DF92EF92FF920F9316
:1001A0001F93CF93DF9300D01F92CDB7DEB783E0CC
:1001B0000E94BA010AEF10E0B8010E9439036F5F94
:1001C0006093000185E00E94BA01B8010E943903E2
:1001D0006F5F6093010187E00E94BA01893C91053D
:1001E0000CF450C080910B0181114CC061E08CE097
:1001F0000E94CA0281E080930B010E94210220919B
:10020000140130911501621B730B7093030160930D
:1002100002010E9421028B019C0160931401109342
:1002200015012093160130931701109218011092B6
:10023000190110921A0110921B0160930C01109386
:100240000D0120930E0130930F01109210011092B6
:1002500011011092120110921301809101010E946C
:1002600080002091060130E02817390734F082E041
:1002700090E00E94A80010920601809106018F5F15
:10028000809306010E9421024B015C019B01A501A4
:1002900060E070E080E090E0A0900C01B0900D0173
:1002A000C0900E01D0900F01E0901001F09011016C
:1002B00000911201109113010E944D03C52ED62EFC
:1002C000E72EF82E092FA0900201B0900301809133
:1002D000000129833A834B830E948000BC01C50141
:1002E0000E9439035B011B2D110F110B29813A81EB
:1002F0004B815C2D6D2D7E2D8F2D902FC12ED12EFB
:10030000E12EF12E012F0E945603C9F0C0F08CE0BF
:1003100090E00E94A8000E9421028B019C01609342
:100320000C0110930D0120930E0130930F011092D8
:10033000100110921101109212011092130187E026
:100340000E94BA01883C91052CF480910B01811127
:1003500010920B010F900F900F90DF91CF911F9192
:100360000F91FF90EF90DF90CF90BF90AF909F9054
:100370008F9008958E3008F08E5087702091040180
:1003800090E4299F90011124822B80937C0080911E
:100390007A00806480937A0080917A0086FDFCCF99
:1003A000809178002091790090E0922B08951F921F
:1003B0000F920FB60F9211242F933F938F939F9319
:1003C000AF93BF9380911D0190911E01A0911F01D9
:1003D000B091200130911C0123E0230F2D3720F430
:1003E0000196A11DB11D05C026E8230F0296A11D8F
:1003F000B11D20931C0180931D0190931E01A093B9
:100400001F01B09320018091210190912201A091C0
:100410002301B09124010196A11DB11D80932101FA
:1004200090932201A0932301B0932401BF91AF9137
:100430009F918F913F912F910F900FBE0F901F9022
:1004400018952FB7F89460911D0170911E0180914D
:100450001F01909120012FBF0895789484B5826088
:1004600084BD84B5816084BD85B5826085BD85B558
:10047000816085BDEEE6F0E0808181608083E1E807
:10048000F0E010828081826080838081816080833F
:10049000E0E8F0E0808181608083E1EBF0E0808142
:1004A00084608083E0EBF0E0808181608083EAE714
:1004B000F0E080818460808380818260808380819D
:1004C000816080838081806880831092C10008955C
:1004D000833081F028F4813099F08230A1F00895C2
:1004E0008630A9F08730B9F08430D1F48091800053
:1004F0008F7D03C0809180008F7780938000089566
:1005000084B58F7702C084B58F7D84BD08958091B6
:10051000B0008F7703C08091B0008F7D8093B000D2
:100520000895CF93DF9390E0FC01E458FF4F2491AE
:10053000FC01E057FF4F8491882349F190E0880F38
:10054000991FFC01E854FF4FA591B49182559F4F2C
:10055000FC01C591D4919FB7611108C0F8948C91AA
:10056000209582238C93888182230AC0623051F4C3
:10057000F8948C91322F309583238C938881822B31
:10058000888304C0F8948C91822B8C939FBFDF9159
:10059000CF9108950F931F93CF93DF931F92CDB701
:1005A000DEB7282F30E0F901E859FF4F8491F901B7
:1005B000E458FF4F1491F901E057FF4F04910023D5
:1005C000C9F0882321F069830E9468026981E02FC5
:1005D000F0E0EE0FFF1FE255FF4FA591B4919FB7DA
:1005E000F8948C91611103C01095812301C0812B77
:1005F0008C939FBF0F90DF91CF911F910F91089522
:10060000CF93DF93282F30E0F901E859FF4F849111
:10061000F901E458FF4FD491F901E057FF4FC4911D
:10062000CC2391F081110E946802EC2FF0E0EE0FD4
:10063000FF1FEC55FF4FA591B4912C912D2381E024
:1006400090E021F480E002C080E090E0DF91CF9163
:1006500008950E942D020E949400C0E0D0E00E9404
:10066000C7002097E1F30E940000F9CFF8940C94A2
:10067000730397FB072E16F4009407D077FD09D07B
:100680000E945F0307FC05D03EF4909581959F4F33
:100690000895709561957F4F08952A193B094C097B
:1006A0005D096E097F09800B910B08952A153B05A2
:1006B0004C055D056E057F05800791070895AA1B0F
:1006C000BB1B51E107C0AA1FBB1FA617B70710F03D
:1006D000A61BB70B881F991F5A95A9F7809590956F
:0A06E000BC01CD010895F894FFCF8E
:0606EA000101F401010012
:00000001FF
